:100000000C9490000C94AF000C94AF000C94AF00D3
:100010000C94AF000C94AF000C94AF000C94AF00A4
:100020000C94AF000C94AF000C94AF000C94AF0094
:100030000C94AF000C94AF000C94AF000C94AF0084
:100040000C94AF000C94AF000C94AF000C94AF0074
:100050000C94AF000C94AF000C94AF000C94AF0064
:100060000C94AF000C94AF000C94AF000C94AF0054
:100070000C94AF000C94AF000C94AF000C94AF0044
:100080000C94AF000C94AF000C94AF000C94AF0034
:100090000C94AF000C94AF000C94AF000C94AF0024
:1000A0000C94AF000C94AF000C94AF000C94AF0014
:1000B0000C94AF000C94AF000C94AF000C94AF0004
:1000C0000C94AF000C94AF000C94AF000C94AF00F4
:1000D0000C94AF000C94AF000C94AF000C94AF00E4
:1000E0000C94AF000C94AF000C94AF000C94AF00D4
:1000F0000C94AF000C94AF000C94AF000C94AF00C4
:100100000C94AF000C94AF000C94AF000C94AF00B3
:100110000C94AF000C94AF000C94AF000C94AF00A3
:1001200011241FBECFEFD1E4DEBFCDBF12E0A0E0AF
:10013000B2E0ECE3F8E000E00BBF02C007900D92E4
:10014000AC30B107D9F722E0ACE0B2E001C01D92BB
:10015000AD30B207E1F70E94CD020C941C040C9460
:1001600000006898699A1092C5008093C40088E1E5
:100170008093C1008EE08093C20008959091C000EA
:1001800095FFFCCF8093C60008958091C00087FF43
:10019000FCCF8091C6000895FC018091C00085FFCE
:1001A000FCCF80818093C6008091C00085FFFCCF8A
:1001B00081818093C6000895CF92DF92EF92FF92E3
:1001C0001F93CF93DF9300D0CDB7DEB76B012DB770
:1001D0003EB73A832983482F50E08DB79EB7841BE2
:1001E000950B0FB6F8949EBF0FBE8DBF0196FC0114
:1001F00020E030E061916A3339F52417350724F1A6
:1002000029813A810FB6F8943EBF0FBE2DBF0F90E3
:100210000F90DF91CF911F91FF90EF90DF90CF90E3
:1002200008951091C600D7011C931091C600DB0100
:100230001C931091C00017FFF4CF1091C600DB0192
:100240001C932F5F3F4FD6CFBF01615071097601DC
:10025000E20EF31EEECFCF93C62F80680E94BE0041
:100260008C2F0E94BE00CF9108958F770E94BE0010
:1002700080E00E94BE000C94C5008230910559F0C8
:1002800028F4892B31F4759876980895039731F006
:100290000895759AF9CF7598769A0895759AFCCF56
:1002A000CF93DF93CDB7DEB72D970FB6F894DEBFAF
:1002B0000FBECDBF2F83388749875A876B877C87CE
:1002C0008D876D9A6E9A7598769883E090E00E947B
:1002D0003D018F81898389858A838A858B838B857C
:1002E0008C838C858D838D858E83CE0101960E94B3
:1002F000CC0080E090E00E943D0181E02D960FB699
:10030000F894DEBF0FBECDBFDF91CF910895CF939C
:10031000DF9300D000D000D00F92CDB7DEB783E0DE
:1003200090E00E943D018091000290910102A09115
:1003300002028D839E83AF83CE0105960E94CC007E
:1003400080E090E00E943D01BE016F5F7F4F84E03E
:100350000E94DC0027960FB6F894DEBF0FBECDBF1B
:10036000DF91CF910895CF93DF93CDB7DEB72D976F
:100370000FB6F894DEBF0FBECDBF8AE38D836D9AB2
:100380006E9A759876980E9487018823A9F083E079
:1003900090E00E943D0180EC888719861A868D8145
:1003A0008B871C861D86CE0108960E94CC0080E0BB
:1003B00090E00E943D0181E02D960FB6F894DEBFDB
:1003C0000FBECDBFDF91CF910895CF93DF93CDB70F
:1003D000DEB729970FB6F894DEBF0FBECDBF83E01E
:1003E00090E00E943D018091040290910502A0914D
:1003F00006028F839887A987CE0107960E94CC00BA
:1004000080E090E00E943D01BE016F5F7F4F86E07B
:100410000E94DC0029960FB6F894DEBF0FBECDBF58
:10042000DF91CF910895CF93DF9300D00F92CDB796
:10043000DEB783E090E00E943D0180910802909138
:100440000902A0910A0289839A83AB83CE010196A7
:100450000E94CC0080E090E00E943D0181E00F907E
:100460000F900F90DF91CF910895AF92BF92CF92EE
:10047000DF92EF92FF920F931F93CF93DF936B0165
:100480007C0160E086E00E942B0160E087E00E9432
:100490002B01D701C6019C01AD0160E070E080E056
:1004A00090E003E10E940304A12CE8E4BE2EF8EEE4
:1004B000CF2EDD24D394E12CF12C00E010E00E943B
:1004C0005F03622F88E0DF91CF911F910F91FF9022
:1004D000EF90DF90CF90BF90AF900C942B018231C2
:1004E00038F081E18250682F606889E00C942B011C
:1004F0008230C0F782E0F6CFCF93C62F682F8EE010
:100500000E942B016C2F8FE0CF910C942B01EF9266
:10051000FF920F931F93CF93DF93F82EE92EC62FF0
:1005200082E20E943501D82F2C2F280F3327331F4A
:100530002F3F310519F010F0CD2FC0950F2D1E2D36
:10054000802F8F198C1768F06D2F6C0F82E20E943C
:100550002B018C2FDF91CF911F910F91FF90EF9086
:100560000895F80161918F0180E00E942B01E8CF8E
:1005700083E10E94350190910C02891B08950E942D
:10058000B802882341F080910C028F5F80930C02A7
:1005900080E00C9435018FEF089500D000D000D09A
:1005A0000F92CDB7DEB787E60E94B100FE01339609
:1005B00085E0DF011D928A95E9F780EC282F898379
:1005C0001A826D81687F6A636D8330E04B815C8144
:1005D0007E818F810E9450018130E9F588E40E947C
:1005E000BE00BFEF23ED80E3B15020408040E1F733
:1005F00000C0000085E40E94BE009FEFA3EDB0E3C1
:100600009150A040B040E1F700C000008CE40E948F
:10061000BE002FEF83ED90E3215080409040E1F742
:1006200000C000008CE40E94BE00AFEFB3ED20E3F9
:10063000A150B0402040E1F700C000008FE40E94CC
:10064000BE008FEF93EDA0E381509040A040E1F712
:1006500000C00000C3CFFFCF689401C0E894F92F19
:10066000F12B12F00C946003A0E0B0E0EAE3F3E0B9
:100670000C94D203092E059422F40E94BC0311238A
:1006800092F4F0E80F26FFEFE094F09400951095B7
:10069000B094C094D094A194BF0ACF0ADF0AEF0AA5
:1006A000FF0A0F0B1F0B0E946B0307FC0E94BC0389
:1006B000CDB7DEB7ECE00C94EE03689401C0E8948B
:1006C0008F929F92CF93DF930E946B03DF91CF9124
:1006D0009F908F90089588249924F401E401B0E458
:1006E0009F93AA279A158B049C04ED05FE05CF0560
:1006F000D007A10798F4AD2FDC2FCF2FFE2FE92DC7
:10070000982C892E982F872F762F652F542F432FC3
:10071000322F2227B85031F7BF9127C01B2EBF912F
:10072000BB27220F331F441F551F661F771F881FCB
:10073000991F881C991CEE1FFF1FCC1FDD1FAA1FCD
:10074000BB1F8A149B04EC05FD05CE05DF05A00741
:10075000B10748F08A189B08EC09FD09CE09DF09AA
:10076000A00BB10B21601A94E1F62EF49401AF01B5
:10077000BE01CD01000C089560957095809590950F
:1007800030954095509521953F4F4F4F5F4F6F4F9C
:100790007F4F8F4F9F4F08952F923F924F925F92BE
:1007A0006F927F928F929F92AF92BF92CF92DF9281
:1007B000EF92FF920F931F93CF93DF93CDB7DEB7E6
:1007C000CA1BDB0B0FB6F894DEBF0FBECDBF09947A
:1007D0002A88398848885F846E847D848C849B84D1
:1007E000AA84B984C884DF80EE80FD800C811B81DF
:1007F000AA81B981CE0FD11D0FB6F894DEBF0FBE0E
:10080000CDBFED010895002E083090F0982F872F6E
:10081000762F652F542F432F322F22270850F4CFE5
:10082000220F331F441F551F661F771F881F991FF4
:0C0830000A95B2F7002D0895F894FFCF50
:0C083C00C3C3C300C1C1C100C4C4C400D8
:00000001FF
