:100000000C9490000C94AF000C94AF000C94AF00D3
:100010000C94AF000C94AF000C94AF000C94AF00A4
:100020000C94AF000C94AF000C94AF000C94AF0094
:100030000C94AF000C94AF000C94AF000C94AF0084
:100040000C94AF000C94AF000C94AF000C94AF0074
:100050000C94AF000C94AF000C94AF000C94AF0064
:100060000C94AF000C94AF000C94AF000C94AF0054
:100070000C94AF000C94AF000C94AF000C94AF0044
:100080000C94AF000C94AF000C94AF000C94AF0034
:100090000C94AF000C94AF000C94AF000C94AF0024
:1000A0000C94AF000C94AF000C94AF000C94AF0014
:1000B0000C94AF000C94AF000C94AF000C94AF0004
:1000C0000C94AF000C94AF000C94AF000C94AF00F4
:1000D0000C94AF000C94AF000C94AF000C94AF00E4
:1000E0000C94AF000C94AF000C94AF000C94AF00D4
:1000F0000C94AF000C94AF000C94AF000C94AF00C4
:100100000C94AF000C94AF000C94AF000C94AF00B3
:100110000C94AF000C94AF000C94AF000C94AF00A3
:1001200011241FBECFEFD1E4DEBFCDBF12E0A0E0AF
:10013000B2E0E6EFF7E000E00BBF02C007900D92DF
:10014000A231B107D9F722E0A2E1B2E001C01D92CD
:10015000A331B207E1F70E94AA020C94F9030C94B0
:1001600000006898699A1092C5008093C40088E1E5
:100170008093C1008EE08093C20008959091C000EA
:1001800095FFFCCF8093C60008958091C00087FF43
:10019000FCCF8091C6000895FC018091C00085FFCE
:1001A000FCCF80818093C6008091C00085FFFCCF8A
:1001B00081818093C6000895CF93DF93CDB7DEB7DA
:1001C000CE5FD1400FB6F894DEBF0FBECDBFFE01AB
:1001D0003196AE0141505E4F8E2FDF0112972D9167
:1001E0003C912A33310519F0E417F50751F4C25058
:1001F000DE4F0FB6F894DEBF0FBECDBFDF91CF91BB
:1002000008959091C00097FFFCCF2091C60030E088
:1002100021933193E2CFCF93C62F80680E94BE0016
:100220008C2F0E94BE00CF9108958F770E94BE0050
:1002300080E00E94BE000C94C5008230910559F008
:1002400028F4892B31F4759876980895039731F046
:100250000895759AF9CF7598769A0895759AFCCF96
:10026000CF93DF9300D000D000D0CDB7DEB783E0CE
:1002700090E00E941D0186E0E0E0F2E0DE011196D0
:1002800001900D928A95E1F7CE0101960E94CC0073
:1002900080E090E00E941D010E94DC000F900F9012
:1002A0000F900F900F900F90DF91CF910895CF9303
:1002B000DF93CDB7DEB72D970FB6F894DEBF0FBE34
:1002C000CDBF8AE38D836D9A6E9A759876980E9459
:1002D00030018823A9F083E090E00E941D0180ECAA
:1002E000888719861A868D818B871C861D86CE018C
:1002F00008960E94CC0080E090E00E941D0181E001
:100300002D960FB6F894DEBF0FBECDBFDF91CF9113
:100310000895CF93DF93CDB7DEB72D970FB6F8943E
:10032000DEBF0FBECDBF2F83388749875A876B87C3
:100330007C878D876D9A6E9A759876980E943001A9
:100340008823C9F083E090E00E941D018F8189839A
:1003500089858A838A858B838B858C838C858D8325
:100360008D858E83CE0101960E94CC0080E090E0C6
:100370000E941D0181E02D960FB6F894DEBF0FBEDE
:10038000CDBFDF91CF910895CF93DF9300D000D000
:1003900000D0CDB7DEB783E090E00E941D0186E07B
:1003A000E6E0F2E0DE01119601900D928A95E1F708
:1003B000CE0101960E94CC0080E090E00E941D01D9
:1003C0000E94DC000F900F900F900F900F900F90F5
:1003D000DF91CF910895CF93DF9300D000D000D06C
:1003E000CDB7DEB783E090E00E941D0186E0ECE02F
:1003F000F2E0DE01119601900D928A95E1F7CE01AF
:1004000001960E94CC0080E090E00E941D010E94B5
:10041000DC000F900F900F900F900F900F90DF91D6
:10042000CF910895AF92BF92CF92DF92EF92FF9259
:100430000F931F93CF93DF936B017C0160E086E005
:100440000E940B0160E087E00E940B01D701C6010A
:100450009C01AD0160E070E080E090E003E10E946B
:10046000E003A12CE8E4BE2EF8EECF2EDD24D394D9
:10047000E12CF12C00E010E00E943C03622F88E0A8
:10048000DF91CF911F910F91FF90EF90DF90CF9070
:10049000BF90AF900C940B01823138F081E1825013
:1004A000682F606889E00C940B018230C0F782E00D
:1004B000F6CFCF93C62F682F8EE00E940B016C2FD2
:1004C0008FE0CF910C940B01EF92FF920F931F934B
:1004D000CF93DF93F82EE92EC62F82E20E941501FA
:1004E000D82F2C2F280F3327331F2F3F310519F01A
:1004F00010F0CD2FC0950F2D1E2D802F8F198C172A
:1005000068F06D2F6C0F82E20E940B018C2FDF913F
:10051000CF911F910F91FF90EF900895F801619195
:100520008F0180E00E940B01E8CF83E10E9415015A
:1005300090911202891B08950E949502882341F030
:10054000809112028F5F8093120280E00C9415015B
:100550008FEF089500D000D000D00F92CDB7DEB756
:1005600087E60E94B100FE01339685E0DF011D920F
:100570008A95E9F780EC282F89831A826D81687F3C
:100580006A636D8330E04B815C817E818F810E9444
:1005900089018130E9F588E40E94BE00BFEF23EDB8
:1005A00080E3B15020408040E1F700C0000085E4C6
:1005B0000E94BE009FEFA3EDB0E39150A040B04079
:1005C000E1F700C000008CE40E94BE002FEF83ED35
:1005D00090E3215080409040E1F700C000008CE49F
:1005E0000E94BE00AFEFB3ED20E3A150B040204029
:1005F000E1F700C000008FE40E94BE008FEF93ED92
:10060000A0E381509040A040E1F700C00000C3CFBC
:10061000FFCF689401C0E894F92FF12B12F00C94ED
:100620003D03A0E0B0E0E7E1F3E00C94AF03092E56
:10063000059422F40E949903112392F4F0E80F2606
:10064000FFEFE094F09400951095B094C094D0948E
:10065000A194BF0ACF0ADF0AEF0AFF0A0F0B1F0B94
:100660000E94480307FC0E949903CDB7DEB7ECE077
:100670000C94CB03689401C0E8948F929F92CF931F
:10068000DF930E944803DF91CF919F908F90089550
:1006900088249924F401E401B0E49F93AA279A15D1
:1006A0008B049C04ED05FE05CF05D007A10798F447
:1006B000AD2FDC2FCF2FFE2FE92D982C892E982FD0
:1006C000872F762F652F542F432F322F2227B85094
:1006D00031F7BF9127C01B2EBF91BB27220F331FBD
:1006E000441F551F661F771F881F991F881C991C60
:1006F000EE1FFF1FCC1FDD1FAA1FBB1F8A149B0408
:10070000EC05FD05CE05DF05A007B10748F08A1806
:100710009B08EC09FD09CE09DF09A00BB10B216094
:100720001A94E1F62EF49401AF01BE01CD01000C44
:100730000895609570958095909530954095509569
:1007400021953F4F4F4F5F4F6F4F7F4F8F4F9F4FC1
:1007500008952F923F924F925F926F927F928F9265
:100760009F92AF92BF92CF92DF92EF92FF920F9340
:100770001F93CF93DF93CDB7DEB7CA1BDB0B0FB64A
:10078000F894DEBF0FBECDBF09942A883988488807
:100790005F846E847D848C849B84AA84B984C8849D
:1007A000DF80EE80FD800C811B81AA81B981CE0F94
:1007B000D11D0FB6F894DEBF0FBECDBFED01089579
:1007C000002E083090F0982F872F762F652F542F0A
:1007D000432F322F22270850F4CF220F331F441FFC
:1007E000551F661F771F881F991F0A95B2F7002DA6
:0607F0000895F894FFCF0C
:1007F600C300C300C300C100C100C100C400C400DF
:02080600C4002C
:00000001FF
